:023EFD003DD2B4
:023EFF0000665B
:023F01003B7F04
:040026006C6569009C
:103D06009003567403F0E4900355F07B017A03792F
:063D1600557F030221B7F6
:103A1A009003557440F0A37401F0A312147D0001C1
:103A2A00C20090035C7401F0E4A3F07B017A03798D
:103A3A00557F011209BE7D017F011235BD53A23F98
:013A4A002259
:0C3E990043BA80123D06123A1AD2AF2242
:103DD200123E997F01121C6D7F02121C6DE4FF02DC
:023DE2001CF6CD
:10006600122B82E4FF123C6EE4FF123B2C123B562D
:100076007BFF7A007926E4FDFF1219307D0A7F02A4
:05008600121D7F80EB5C
:103B7F00122A04E4FF1200A6E4FF123B029003ACEA
:103B8F007410F0A3F07B647A00E4FDFF1229297D05
:083B9F000A7F02121D7F80E580
:1000C6000000000000000000002F000000000700F4
:1000D600070000147F147F1400242A7F2A1200626E
:1000E600640813230036495522500000050300001A
:1000F60000001C224100000041221C000014083EA2
:1001060008140008083E0808000000A06000000867
:1001160008080808000060600000002010080402BB
:10012600003E5149453E0000427F40000042615179
:100136004946002141454B31001814127F10002713
:1001460045454539003C4A494930000171090503D6
:1001560000364949493600064949291E0000363607
:10016600000000005636000000081422410000146A
:100176001414141400004122140800020151090647
:1001860000324959513E007C1211127C007F4949C8
:100196004936003E41414122007F4141221C007FF9
:1001A60049494941007F09090901003E4149497A07
:1001B600007F0808087F0000417F41000020404181
:1001C6003F01007F08142241007F40404040007FED
:1001D600020C027F007F0408107F003E4141413E31
:1001E600007F09090906003E4151215E007F091979
:1001F60029460046494949310001017F0101003F76
:100206004040403F001F2040201F003F4038403FF5
:100216000063140814630007087008070061514959
:10022600454300007F41410000552A552A550000EC
:1002360041417F000004020102040040404040406A
:10024600000001020400002054545478007F484402
:10025600443800384444442000384444487F003839
:100266005454541800087E0901020018A4A4A47C62
:10027600007F080404780000447D4000004080842C
:100286007D00007F102844000000417F4000007C74
:1002960004180478007C0804047800384444443880
:1002A60000FC242424180018242418FC007C0804CC
:1002B600040800485454542000043F444020003CA5
:1002C6004040207C001C2040201C003C4030403C2C
:1002D600004428102844001CA0A0A07C00446454BC
:1002E6004C44141414141414000000000000000000
:1002F6000000000000000000000000F80000000000
:10030600000000333000000000100C06100C060040
:10031600000000000000000040C07840C0784000A7
:10032600043F04043F040400007088FC0830000009
:10033600001820FF211E0000F008F000E018000061
:1003460000211C031E211E0000F00888700000001A
:100356001E2123241927211010160E00000000006C
:100366000000000000000000000000E01804020089
:10037600000000071820400000020418E0000000FA
:100386000040201807000000404080F080404000F8
:100396000202010F01020200000000F0000000004E
:1003A6000101011F01010100000000000000000022
:1003B60080B0700000000000000000000000000097
:1003C6000001010101010101000000000000000020
:1003D60000303000000000000000000080601804BB
:1003E600006018060100000000E010080810E00098
:1003F600000F102020100F00001010F80000000061
:100406000020203F202000000070080808887000A7
:100416000030282422213000003008888848300027
:100426000018202020110E000000C02010F8000047
:1004360000070424243F240000F8088888080800E0
:100446000019212020110E0000E0108888180000F5
:10045600000F112020110E0000380808C8380800C7
:100466000000003F00000000007088080888700047
:10047600001C222121221C0000E010080810E000C8
:100486000000312222110F00000000C0C000000051
:100496000000003030000000000000800000000076
:1004A600000080600000000000008040201008006E
:1004B6000001020408102000404040404040400037
:1004C6000404040404040400000810204080000012
:1004D6000020100804020100007048080808F00017
:1004E6000000003036010000C030C828E810E000E7
:1004F6000718272423140B000000C038E000000072
:10050600203C23020227382008F8888888700000DB
:10051600203F202020110E00C030080808083800AF
:10052600071820202010080008F808080810E00026
:10053600203F202020100F0008F88888E8081000C7
:10054600203F20202320180008F88888E80810009B
:10055600203F200003000000C030080808380000D3
:1005660007182020221E020008F808000008F808D4
:10057600203F210101213F20000808F8080800005B
:100586000020203F2020000000000808F80808008E
:10059600C08080807F00000008F888C02818080006
:1005A600203F20012638200008F80800000000003F
:1005B600203F20202020300008F8F800F8F8080036
:1005C600203F003F003F200008F830C00008F80830
:1005D600203F200007183F00E01008080810E00040
:1005E6000F10202020100F0008F808080808F00057
:1005F600203F210101010000E01008080810E0007A
:100606000F18242438504F0008F88888888870000E
:10061600203F2000030C30200070880808083800AE
:100626000038202121221C00180808F808081800A4
:100636000000203F2000000008F808000008F80825
:10064600001F202020201F000878880000C83808D6
:10065600000007380E010000F80800F80008F8004E
:10066600033C0700073C03000818688080681808E8
:1006760020302C03032C30200838C800C838080066
:100686000000203F2000000010080808C8380800B5
:100696002038262120201800000000FE0202020059
:1006A6000000007F40404000000C30C00000000009
:1006B600000000010638C00000020202FE00000031
:1006C600004040407F0000000000040202020400D7
:1006D6000000000000000000000000000000000014
:1006E60080808080808080800002020400000000FC
:1006F60000000000000000000000808080800000F4
:100706000019242222223F2008F8008080000000E1
:10071600003F112020110E000000008080800000A4
:10072600000E112020201100000000808088F800B3
:10073600000E112020103F200000808080800000E5
:10074600001F222222221300008080F08888881849
:100756000020203F20200000000080808080800054
:10076600006B94949493600008F8008080800000E9
:10077600203F210000203F200080989800000000C4
:100786000020203F202000000000008098980000F4
:1007960000C08080807F000008F800008080800014
:1007A600203F24022D302000000808F80000000039
:1007B6000020203F202000008080808080808000F4
:1007C600203F20003F20003F808000808080000086
:1007D600203F210000203F20000080808080000014
:1007E600001F202020201F00808000808000000045
:1007F60080FFA12020110E00000000808080800074
:10080600000E112020A0FF80808080008080800064
:1008160020203F2120000100000080808080800091
:100826000033242424241900008080E08080000006
:100836000000001F20200000808000000080800053
:10084600001F202020103F208080800000808080B4
:1008560000010E3008060100808000800080808044
:100866000F300C030C300F00008080008080800069
:100876000020312E0E312000808080000080808094
:1008860080818E7018060100008080808080800044
:100896000021302C2221300000000000807C020262
:1008A60000000000003F404000000000FF00000084
:1008B60000000000FF0000000002027C8000000033
:1008C6000040403F0000000000060101020204044F
:1008D60000000000000000000000F010101010FFE3
:1008E60010101010F000000000000F04040404FFB4
:1008F600040404040F0000004040405F5555557540
:100906005555555F404040000040200F0949897900
:100916000909090F2040000000FE02424ACA4A4A5D
:10092600CA4A4A4202FE000000FF40504C43404083
:100936004F50505C40FF00000000F888888888FF10
:1009460088888888F800000000001F080808087FCB
:10095600888888889F80F00080828282828282E2F4
:10096600A2928A8682808000000000000040807F7C
:100976000000000000000000101010FF1090088812
:100986008888FF88888808000444827F0180804028
:10099600432C1028468180000010101010D030FF24
:1009A60030D0121C1010000010080402010000FFD5
:0809B60000000102040810001A
:1000A6009003A8EFF07006FD7FA61239929003A880
:0C00B600E0B40107E4FD7FA7123992229C
:103B02009003A8EFF0700DFD7FC8123992E4FD7F9B
:103B1200A11239929003A8E0B4010EE4FD7FC01215
:0A3B22003992E4FD7FA012399222CF
:083ED2007F01AE071FEE70FA3C
:013EDA0022C5
:0F3E0500D2B3D2B2123ED2C2B3123ED2C2B22256
:0A3EC800C2B3D2B2123ED2D2B3222E
:0F3E1400D2B3123ED2D2B2123ED2C2B2023ED2CC
:023BA700AD0768
:103BA900E4FCC2B2ED30E704D2B38002C2B3123EE4
:103BB900D2D2B2123ED2C2B2ED25E0FD0CECB4086D
:013BC900E11A
:013BCA0022D8
:10398100F583E5822FF582E5833EF583E493FF7DA0
:013991000134
:103992009003BDEFF0ED7B017A0379BD9003C36024
:1039A200077401F07D4080057401F0E4FD7F781218
:0339B20039B52202
:0739E800E0FFA3E0FD04F085
:1039EF009003BCEFF0ED24B0FFE4FD123992900389
:1039FF00BCE054F0C4540F4410FFE4FD1239929010
:0B3A0F0003BCE0540FFFE4FD023992FD
:10002E00E4FD7F8D123992E4FD7F14123992E4FDC6
:05003E007FAF023992C2
:10004E00E4FD7F8D123992E4FD7F10123992E4FDAA
:05005E007FAE023992A3
:1033AE00E49003A8F09003A8E0FFC394085036EF12
:1033BE0024B0FFE4FD123992E4FDFF123992E4FDD0
:1033CE007F10123992E49003A9F07D01E4FF1239C7
:1033DE00929003A9E004F0E0C3948040ED9003A81E
:0533EE00E004F080C0C6
:0133F30022B7
:08282D009003B2EFF0A3EDF0FF
:10283500E49003B6F09003B5E0FFC313FD9003B732
:10284500F0E4A3F0A3F0EFB40809A3E4F0A3740641
:10285500F080319003B5E0FF131313541FF5827513
:102865008300EF54077E0060047F0180027F00EF44
:102875002582FFEE3583FE7C001212129003BAEE1C
:10288500F0A3EFF0EB24E09003B6F09003B2E0FF85
:10289500A3E0FD1239EFE49003B8F0A3F09003BA7A
:1028A500E0FCA3E0FD9003B8E0FEA3E0FFC39DEECE
:1028B5009C50709003B7E0FD7C00121224ED4C7023
:1028C5000E9003B5E0640860069003B21239E890F3
:1028D50003B5E0B4081A9003B8E0FEA3E0FF900347
:1028E500B6E075F006A424C6F582E5F03400801F35
:1028F5009003B5E0B4102C9003B8E0FEA3E0FF9080
:1029050003B6E075F010A424EEF582E5F03402126A
:1029150039819003B9E004F070069003B8E004F043
:032925000228A2E3
:01292800228C
:073C32009003B2EFF0A905B9
:103C39007F017E00AD0119ED600C9003B2E0FD7CBF
:063C49000012121280EED1
:013C4F002252
:0E2929009003A8EFF0A3EDF0A3EAF0A3EBF00B
:10293700E49003B0F0A3F09003ADE0B40806900371
:10294700B07402F0E49003AEF09003ACE0FF9003A4
:10295700AEE0FEC39F4003022A03C3EF9E14FD7F30
:102967000A123C329003AAE0FCA3E0FDCFCDCFCE04
:10297700CCCE1212247C007D0A1212249003AFEDF4
:10298700F09003B1E0703C9003ACE014FF9003AE0D
:10299700E0FEC39F502DA3E070239003ADE0FCC37E
:1029A70013FF9003B0E02F8EF0A4FF9003A8E02F51
:1029B700FFA3E0FD9003B5ECF07B2080339003B1DB
:1029C7007401F09003ADE0FEC313FF9003B0E02F56
:1029D700FF9003AEE0FDEF8DF0A4FF9003A8E02F7A
:1029E700FFA3E0FD9003AFE02430FB9003B5EEF0CA
:0C29F70012282D9003AEE004F0022950DD
:012A030022B0
:102FDD00900400EFF0A3EDF0A3EBF0A3EAF0A3E96A
:012FED00F0F3
:102FEE00E4900406F0900402E0FBA3E0FAA3E0F9FB
:102FFE00900406E0F5827583001211B160409004D2
:10300E0000E0FFA3E0FD900406E0FE04F08E827562
:10301E0083001211B1FB900405E09003B5F0122865
:10302E002D900405E0FFB40809900400E02406F09A
:0E303E0080B3EFC313FF900400E02FF080A7D3
:01304C002261
:0B2C30009003F0EFF0A3EDF0A3EBF039
:102C3B00A3E0FF131313541FFD7C00EF54077E001A
:102C4B0060047F0180027F00EF2DFFEE3CFE9003BE
:102C5B00F3E0FD7C001212129003F6EEF0A3EFF0FE
:102C6B00E49003F4F0A3F09003F6E0FCA3E0FD90F6
:102C7B0003F4E0FEA3E0FFC39DEE9C50439003F3EF
:102C8B00E0FD7C00121224ED4C70069003F012391B
:102C9B00E89003F3E0B41028A3E0FEA3E0FF900359
:102CAB00F2E0C43354E024DEF582E43408123981B7
:102CBB009003F5E004F070AF9003F4E004F080A70C
:012CCB0022E6
:0B2CCC009003E5EFF0A3EDF0A3EBF0A8
:102CD700E49003ECF0A3F09003E8E0FF1313135420
:102CE7001FFEEF540760047F0180027F00EE2F90E4
:102CF70003E8F0E49003EEF09003E8E0FF9003EEC2
:102D0700E0FEC39F50519003E5E0FFA3E0FDEE2DE9
:102D1700FD1239EFE49003EFF09003E7E0FF900333
:102D2700EFE0C39F50299003E9E0FBA3E0FAA3E09B
:102D3700F9A3E475F00112127985F082F583121177
:102D4700B1FF7D011239929003EFE004F080CA9041
:072D570003EEE004F080A18F
:012D5E002252
:103A4B009003AA7401F09003A9F0E49003ABF090FB
:103A5B0003A8740DF07B017A0379A8122EE9E4FB1D
:0E3A6B00FD7F0112304DE5BA54CF4430F5BA5C
:013A7900222A
:102A040053B1F353B2F3123A4BE4FD7FAE12399251
:102A1400E4FDFF123992E4FD7F10123992E4FD7F48
:102A240040123992E4FD7F81123992E4FD7FCF1286
:102A34003992E4FD7FA1123992E4FD7FC8123992E4
:102A4400E4FD7FA6123992E4FD7FA8123992E4FDD9
:102A54007F3F123992E4FD7FD3123992E4FDFF12D5
:102A64003992E4FD7FD5123992E4FD7F80123992C8
:102A7400E4FD7FD9123992E4FD7FF1123992E4FD2D
:102A84007FDA123992E4FD7F12123992E4FD7FDB82
:102A9400123992E4FD7F40123992E4FD7F2012390D
:102AA40092E4FD7F02123992E4FD7F8D123992E4A3
:102AB400FD7F14123992E4FD7FA4123992E4FD7F64
:0E2AC400A61239921233AEE4FD7FAF023992B2
:103D1C002E00300031003200330034003500360004
:063D2C00370038003900E9
:0700030044040D00000000A1
:103C6E00900368EFF07006FD7FA6123A809003680D
:0C3C7E00E0B40107E4FD7FA7123A8022A9
:103B2C00900368EFF0700DFD7FC8123A80E4FD7FC2
:103B3C00A1123A80900368E0B4010EE4FD7FC0123C
:0A3B4C003A80E4FD7FA0123A8022C7
:103D3200E4FD7F8D123A80E4FD7F14123A80E4FDA7
:053D42007FAF023A8092
:103D4700E4FD7F8D123A80E4FD7F10123A80E4FD96
:053D57007FAE023A807E
:063A7A00121198FF7D010E
:103A8000ED6004D2968002C296C2C7E4FEC2C8EFBF
:103A900030E704D2938002C293D2C8EF25E0FF0E34
:083AA000EEB408E9D2C7D2968A
:013AA80022FB
:103B5600E4FCEC24B0FFE4FD123A807F10123A80B8
:103B6600E4FF123A80E4FB7D01E4FF123A800BEB9E
:083B7600B480F40CECB408DA91
:013B7E002224
:103C5000AC07ED24B0FFE4FD123A80EC54F0C454FC
:0E3C60000F4410FF123A80EC540FFF023A801E
:103AA900E4900416F0900416E0FDC39408501EE457
:103AB900FF123C50E4FC123A7A740129F9E43AFA0B
:0D3AC9000CECB480F1900416E004F080D8FD
:013AD60022CD
:083671009003A1EFF0A3EDF0BE
:10367900E4A3F09003A1E0FFA3E0FD123C50E4FCB9
:10368900123A7A740129F9E43AFA0CECB410F1907F
:0F36990003A2E004F0A3E004F0E0C3940240D4E5
:0136A80022FF
:0836A9009003A1EFF0A3EDF086
:1036B100E4A3F09003A1E0FFA3E0FD123C50E4FC81
:1036C100123A7A740129F9E43AFA0CECB408F1904F
:0F36D10003A2E004F0A3E004F0E0C3940240D4AD
:0136E00022C7
:103D5C00123C50E4FC123A7A740129F9E43AFA0C58
:043D6C00ECB406F1BC
:013D70002230
:103C8A00E4FEC2C8EF30E704D2938002C293EF2564
:093C9A00E0FFD2C80EEEB408E907
:013CA30022FE
:103D7100E4FFFEC2C8EF25E0FF3091010FD2C80E6B
:043D8100EEB408EFA5
:013D8500221B
:02343700AC07E0
:10343900C2907F03123C8AAF04123C8AAF05123C4A
:103449008AAF03123C8AE4FD9003A7E0FFEDC39F16
:10345900501A123D719003A4E0FBA3E0FAA3E0F92E
:0E3469008D82758300EF1211F00D80DCD29081
:013477002232
:10193000900368EFF0A3EDF0A3EBF0A3EAF0A3E9C6
:01194000F0B6
:10194100E4A3F090036AE0FBA3E0FAA3E0F9A3E0CB
:10195100F5827583001211B1FFD394005003021C6C
:101961006CEF94B05003021A0DEFD394F7400302C9
:101971001A0D90036DE02401FFE433FE8F828E8304
:101981001211B1C394A15003021A0D90036AA3A3CB
:10199100A3E0F5827583001211B12450FFE434FFF6
:1019A100FE7C007D5E121212EE3395E0FDFC900488
:1019B1000D12147190040DE0F8A3E0F9A3E0FAA36D
:1019C100E0FBC000C001C002C00390036DE0240130
:1019D100FFE433FE90036AE0FBA3E0FAA3E0F98F92
:1019E100828E831211B1245FFFE434FFCF244ECFE6
:1019F1003403FEE4FCFDD003D002D001D000EB2F74
:101A0100FFEA3EFEED39FDEC38021AC790036AE0A9
:101A1100FBA3E0FAA3E0F9A3E0F5827583001211BC
:101A2100B1FFC394A15003021B68EFD394A34003F9
:101A3100021B6890036DE02401FFE433FE8F828E68
:101A4100831211B1C394A15003021B6890036AA3CE
:101A5100A3A3E0F5827583001211B1245FFFE43482
:101A6100FFFE7C007D5E121212EE3395E0FDFC90CC
:101A7100040D12147190040DE0F8A3E0F9A3E0FA4B
:101A8100A3E0FBC000C001C002C00390036DE024CD
:101A910001FFE433FE90036AE0FBA3E0FAA3E0F95F
:101AA1008F828E831211B1245FFFE434FFFE3395E0
:101AB100E0FDFCD003D002D001D000EB2FFFEA3EC5
:101AC100FEE93DFDE83CFC90040D12147190040DFB
:101AD100E0FCA3E0FDA3E0FEA3E0FFE47B20FAF934
:101AE100F81212F290040D12147190040DA3E0FD8E
:101AF100A3A3E4FFFEE4FC781012142E90036EEF12
:101B0100F0FA90040DA3A3E0FEA3E4FFE4FDFC784A
:101B11000812142E90036FEFF0F990040DE0FCA36E
:101B2100A3E0FEA3E0FF900370EFF0FBAF02AD0175
:101B31009003A47401F0A37403F0A37471F0A3746F
:101B410020F0123437900368E0FFA3E0FD7B017AB7
:101B5100037971123671900368E02410F090036DDF
:101B6100E02402F002194490036AE0FBA3E0FAA327
:101B7100E0F9A3E0F5827583001211B1FFC394204F
:0E1B81005003021C63EFD3947E4003021C63EA
:101B8F0090036AA3A3A3E0F5827583001211B12419
:101B9F00E0FFE434FFFE3395E0FDFC90040D1214DA
:101BAF007190040DE0FCA3E0FDA3E0FEA3E0FFE4D1
:101BBF007B10FAF9F81212F290040D1214719004BE
:101BCF000DE0FCA3E0FDA3E0FEA3E02480FFEE34D4
:101BDF00CFFEED3403FDE43CFC90040D1214719024
:101BEF00040DA3E0FDA3A3E4FFFEE4FC78101214A0
:101BFF002E90036EEFF0FA90040DA3A3E0FEA3E482
:101C0F00FFE4FDFC780812142E90036FEFF0F990AB
:101C1F00040DE0FCA3A3E0FEA3E0FF900370EFF040
:101C2F00FBAF02AD019003A47401F0A37403F0A302
:101C3F007491F0A37410F0123437900368E0FFA38F
:101C4F00E0FD7B017A0379911236A9900368E024B5
:021C5F0008F08B
:0B1C6100800090036DE004F0021944C5
:011C6C002255
:10270C009003C4EFF0A3EDF0A3EBF0A3EAF0A3E980
:01271C00F0CC
:10271D00E4A3F09003C6E0FBA3E0FAA3E0F9A3E085
:10272D00F5827583001211B1FFD394005003022876
:10273D002CEF94205003022823EFD3947E40030204
:02274D0028233F
:10274F009003C6A3A3A3E0F5827583001211B124F1
:10275F00E0FFE434FFFE3395E0FDFC90040D12140E
:10276F007190040DE0FCA3E0FDA3E0FEA3E0FFE405
:10277F007B08FAF9F81212F290040D1214719004FA
:10278F000DE0FCA3E0FDA3E0FEA3E024C0FFEE34C8
:10279F00BFFEED3403FDE43CFC90040D1214719068
:1027AF00040DA3E0FDA3A3E4FFFEE4FC78101214D4
:1027BF002E9003CAEFF0FA90040DA3A3E0FEA3E45A
:1027CF00FFE4FDFC780812142E9003CBEFF0F99084
:1027DF00040DE0FCA3A3E0FEA3E0FF9003CCEFF019
:1027EF00FBAF02AD019003A47401F0A37403F0A337
:1027FF0074CDF0A37408F01234379003C4E0FFA334
:10280F00E0FD7B017A0379CD123D5C9003C4E02497
:02281F0006F0C1
:0B28210080009003C9E004F0022720B3
:01282C002289
:0A240B009003D6EDF09003D5EFF03A
:102415009003DBE075F008A42F24089003D5F0E4C1
:10242500FFFE7DC87C429003D7E0F8A3E0F9A3E066
:10243500FAA3E0FB1210111211179003E1121471A7
:102445009003D5E024E8FFA3E0FD7BFF7A3D791CEE
:10245500121930E49003DCF09003DBE0FFA3E0C346
:102465009F40030225BEE47B0AFAF9F89003E1E0F8
:10247500FCA3E0FDA3E0FEA3E0FF12137DAC00ADDD
:1024850001AE02AF039003DD1214719003E1E0FC8D
:10249500A3E0FDA3E0FEA3E0FFE47B0AFAF9F8124E
:1024A500137D9003E11214719003D5E024F8F090A8
:1024B50003DCE0B402079003D5E024F8F09003DDD7
:1024C500E0FCA3E0FDA3E0FEA3E0FF1214AE25139C
:1024D5000000000025240000000125340000000252
:1024E5002544000000032554000000042564000075
:1024F50000052574000000062584000000072594CA
:102505000000000825A400000009000025B590037F
:10251500D5E0FFA3E0FD7BFF7A3D791E0225B29051
:1025250003D5E0FFA3E0FD7BFF7A3D7920807E9017
:1025350003D5E0FFA3E0FD7BFF7A3D7922806E9015
:1025450003D5E0FFA3E0FD7BFF7A3D7924805E9013
:1025550003D5E0FFA3E0FD7BFF7A3D7926804E9011
:1025650003D5E0FFA3E0FD7BFF7A3D7928803E900F
:1025750003D5E0FFA3E0FD7BFF7A3D792A802E900D
:1025850003D5E0FFA3E0FD7BFF7A3D792C801E900B
:1025950003D5E0FFA3E0FD7BFF7A3D792E800E9009
:1025A50003D5E0FFA3E0FD7BFF7A3D7930121930BA
:0925B5009003DCE004F002245D57
:0125BE0022FA
:102B82005391B45392B453B37F53B47F53C9FE539A
:102B9200CAFED2C7D2907FC8123DF5E4FD7FAE12C5
:102BA2003A80E4FF123A807F10123A807F40123A54
:102BB200807F81123A807FCF123A807FA1123A80C1
:102BC2007FC8123A807FA6123A807FA8123A807F8D
:102BD2003F123A807FD3123A80E4FF123A807FD5C7
:102BE200123A807F80123A807FD9123A807FF112A6
:102BF2003A807FDA123A807F12123A807FDB123AF1
:102C0200807F40123A807F20123A807F02123A80FF
:102C12007F8D123A807F14123A807FA4123A807F0D
:0E2C2200A6123A80123B56E4FD7FAF023A80C4
:1030AA009000011211B1FFE5DE54F04FF5DE9000F9
:1030BA00021211B1C43354E0FFE5DE54DF4FF5DEEE
:1030CA00121198FFD3941F502B9000031211B1FED6
:1030DA00D39401501F9000041211B1FDD3940350F0
:1030EA0013EDC43354E0FDEEC433333354804D4FF3
:0530FA0090FEA8F02289
:0C3EA500EFB4010443BC802253BC7F2218
:102F6500EFD3940F4002806BE4F5BDF5BEE5BC548C
:102F7500F044404FF5BC00000000000000000000D8
:102F8500E4FDE5BC30E54753BCDFE5DEAFBD30E52C
:102F95000DEFFEACBEECFBEBFF9004148022900419
:102FA50014E4F0A3EFF0E5BEC4540FFBE0C4F854FD
:102FB5000FC868FF900414E0C454F048FEEF4BFFBF
:102FC500EEF0A3EFF0900414E0FEA3E0FF220DED78
:072FD500B4FAAF7E107F008B
:012FDC0022D2
:03002B000200468A
:0400460053BCDF3296
:0F3DF5007D607C09ED1D70011C144C70F7DFF12F
:013E0400229B
:1021B700EFD3940740037FFF22121198FED39403B5
:1021C70040037FFF22EF7041EE700B900001121168
:1021D700B1F452935294121198B4010B900001126A
:1021E70011B14293F45294121198FEB4020A90006E
:1021F700011211B142934294EEB4030D9000011203
:1022070011B1FEF45293EE4294EF64017043121140
:1022170098FE700B9000011211B1F452915292EE98
:10222700B4010B9000011211B14291F452921211B4
:1022370098B4020A9000011211B142914292121110
:1022470098B4030D9000011211B1FEF45291EE42C1
:1022570092EF64027043121198FE700B9000011206
:1022670011B1F452955296EEB4010B900001121180
:10227700B14295F45296121198B4020A90000112D5
:1022870011B142954296121198B4030D90000112B4
:1022970011B1FEF45295EE4296EF640370431211AA
:1022A70098FE700B9000011211B1F452B152B2EEC8
:1022B700B4010B9000011211B142B1F452B21211E4
:1022C70098B4020A9000011211B142B142B2121140
:1022D70098B4030D9000011211B1FEF452B1EE4211
:1022E700B2EF64047043121198FE700B9000011254
:1022F70011B1F452B352B4EEB4010B9000011211B4
:10230700B142B3F452B4121198B4020A9000011208
:1023170011B142B342B4121198B4030D90000112E7
:1023270011B1FEF452B3EE42B4EF640570431211DB
:1023370098FE700B9000011211B1F452C952CAEE07
:10234700B4010B9000011211B142C9F452CA121123
:1023570098B4020A9000011211B142C942CA12117F
:1023670098B4030D9000011211B1FEF452C9EE4268
:10237700CAEF64067043121198FE700B90000112A9
:1023870011B1F452CB52CCEEB4010B9000011211F3
:10239700B142CBF452CC121198B4020A9000011248
:1023A70011B142CB42CC121198B4030D9000011227
:1023B70011B1FEF452CBEE42CCEF64077043121119
:1023C70098FF700B9000011211B1F452E152E2EF45
:1023D700B4010B9000011211B142E1F452E2121163
:1023E70098B4020A9000011211B142E142E21211BF
:1023F70098B4030D9000011211B1FFF452E1EF42BE
:04240700E27F00224E
:102EE9009000021211B16401702A90FE80E0444002
:102EF900F090FE82E4F0121198543FFF90FE80E0BA
:102F090054C04FF09000031211B190FE88B4010231
:102F19008031802990FE80E054BFF090FE84E4F077
:102F29009000041211B125E0FF90FE85E054014F95
:102F3900F09000051211B190FE85B40106E054FE2F
:102F4900F08004E04401F09000011211B190FE807C
:0C2F59007005E0547FF022E04480F0227C
:083EED0090FE82E05480FF22E8
:0C3EB10090FE82E030E6F9E054BFF02201
:093EDB0090FE817401F0023EB179
:0E3E7D0090FE86EFF090FE817402F0023EB1DE
:0E3CEF00123EDB123E7D123CFDAF05123E7D03
:093CFD0090FE817403F0023EB157
:0F3E230090FE817404F0123EB190FE87E0FF2202
:0E3E8B0090FE82E4F090FE817405F0023EB1DC
:0F3E320090FE827401F090FE817405F0023EB1A3
:093EE40090FE817406F0023EB16B
:0D000E0090FE86EDF090FE81EFF0023EB115
:1039B5009003C0EBF0A3EAF0A3E9F0123CEF90030B
:1039C500C0E0FBA3E475F001121279A9F0FA121117
:1039D50098FF123E7D123CFD9003C3E014F070DEAB
:0339E500023EE4BB
:10363800AE07123CEF123EDBEE4401FF123E7D1254
:103648003CFD123E23EF1211DE740129F9E43AFA27
:1036580090040CE064016003123E8B90040CE014AB
:09366800F070DF123E32023EE474
:0300C300022AD23C
:102AD200C0E0C083C082C0D075D000C006C00790DD
:102AE200FE84E030E607E054BFF0022B7590FE84CE
:102AF200E030E53BE054DFF0900412E06004E4F0E3
:102B02008071900411E0600DE4F090FE87E0900483
:102B120013F0E0803790FE87E0FF900413E0FE049C
:102B2200F074F82EF582E43403F583EFF0804490DC
:102B3200FE84E030E426E054EFF0E030E10890FE5D
:102B42008674FFF0802D900413E004F024F8F582DF
:102B5200E43403F583E090FE86F0801790FE84E073
:102B620030E310E054F7F09004127401F090041175
:102B7200F0D200D007D006D0D0D082D083D0E032BD
:10347800EFD3940140037FFF22EDD3940340037FF1
:10348800FF22EF7004C2A98002D2A9ED700553B7DC
:10349800FDC2B9EDB4010553B7FDD2B9EDB40205CB
:1034A80043B702C2B9EDB4030543B702D2B97F00EE
:0134B80022F1
:1034B900EFD3940140037FFF22EDD3940340037FB0
:1034C900FF22EF7004C2AB8002D2ABED700553B797
:1034D900F7C2BBEDB4010553B7F7D2BBEDB4020592
:1034E90043B708C2BBEDB4030543B708D2BB7F009D
:0134F90022B0
:103BEE00EFD3940140037FFF22EDD3940340037F74
:103BFE00FF22EF25E025E0FFE5AF54FB4FF5AFE4E4
:023C0E00FF2293
:103C1000EFD3940140037FFF22EDD3940340037F51
:103C2000FF22EFC43354E0FFE5AF54DF4FF5AFE4BC
:023C3000FF2271
:103BCB00EFD3940140037FFF22EDD3940340037F97
:103BDB00FF22EFC4333354C0FFE5AF54BF4FF5AFF3
:033BEB00E4FF22D2
:1034FA00EFD3940140037FFF22EDD3940340037F6F
:10350A00FF22EF7004C2A88002D2A8ED700553B75B
:10351A00FEC2B8EDB4010553B7FED2B8EDB4020548
:10352A0043B701C2B8EDB4030543B701D2B87F006F
:01353A00226E
:10353B00EFD3940140037FFF22EDD3940340037F2D
:10354B00FF22EF7004C2AA8002D2AAED700553B716
:10355B00FBC2BAEDB4010553B7FBD2BAEDB4020509
:10356B0043B704C2BAEDB4030543B704D2BA7F0024
:01357B00222D
:103CD700EFD3940140037FFF22EFC454F0FFE58F39
:083CE70054EF4FF58FE4FF22BA
:103CBE00EFD3940140037FFF22EFC43354E0FFE5BE
:093CCE008F54DF4FF58FE4FF2253
:103CA400EFD3940140037FFF22EFC4333354C0FFAA
:0A3CB400E58F54BF4FF58FE4FF22A7
:10357C00EFD3940140037FFF22EDD3940340037FEC
:10358C00FF22EF7004C2AD8002D2ADED700553B7CF
:10359C00DFC2BDEDB4010553B7DFD2BDEDB40205FA
:1035AC0043B720C2BDEDB4030543B720D2BD7F00A5
:0135BC0022EC
:10324100EDD3940340037FFF22EF30E10543E620F5
:10325100800353E6DFEF30E00543E610800353E6D9
:10326100EFED700653B6DF53B5DFEDB4010653B68B
:10327100DF43B520EDB4020643B62053B5DFEDB40C
:0B328100030643B62043B5207F002267
:10304D00EFD3940140037FFF22EBD3940340037F22
:10305D00FF22EFB40112ED90FE817006E0547FF077
:10306D008011E04480F0800BEF700890FE83E054F7
:10307D00874DF0EB700653B6DF53B5DFEBB40106A9
:10308D0053B6DF43B520EBB4020643B62053B5DF8C
:0D309D00EBB4030643B62043B5207F0022AC
:1035BD00EFD3940140037FFF22EDD3940340037FAB
:1035CD00FF22EF7004C2AC8002D2ACED700553B790
:1035DD00EFC2BCEDB4010553B7EFD2BCEDB402059B
:1035ED0043B710C2BCEDB4030543B710D2BC7F0086
:0135FD0022AB
:1033F400EFD3940140037FFF22EDD3940340037F76
:10340400FF22E5AF54FE4FF5AFED700653B6FE5301
:10341400B5FEEDB4010653B6FE43B501EDB40206A4
:1034240043B60153B5FEEDB4030643B60143B501FB
:033434007F0022F4
:10328C00EFD3940140037FFF22EDD3940340037FDF
:10329C00FF22EF33333354F8FFE5AF54F74FF5AF5C
:1032AC00ED700653EEFE53DFFEEDB4010653EEFE59
:1032BC0043DF01EDB4020643EE0153DFFEEDB40330
:0A32CC000643EE0143DF017F0022FC
:10331F00EFD3940140037FFF22EDD3940340037F4B
:10332F00FF22EFC454F0FFE5AF54EF4FF5AFED7050
:10333F000653EEFD53DFFDEDB4010653EEFD43DF03
:10334F0002EDB4020643EE0253DFFDEDB403064374
:08335F00EE0243DF027F0022B1
:10336700EFD3940140037FFF22EDD3940340037F03
:10337700FF22EF25E0FFE5AF54FD4FF5AFED7006F7
:1033870053B6FD53B5FDEDB4010653B6FD43B50283
:10339700EDB4020643B60253B5FDEDB4030643B6DA
:0733A7000243B5027F002282
:102DEB00EFD3948140037FFF22EBD3940340037F07
:102DFB00FF22EF247F603204705D90FEC4EDF0EB98
:102E0B00700653B6FB53B5FBEBB4010653B6FB434D
:102E1B00B504EBB4020643B60453B5FBEB64037085
:102E2B003B43B60443B504803390FEE4EDF0EB7006
:102E3B000653B6F753B5F7EBB4010653B6F743B5E4
:102E4B0008EBB4020643B60853B5F7EBB4030D43D6
:0F2E5B00B60843B508800590FEE4EDF07F002235
:1035FE00EDD394035029ED700653EEFB53DFFBED34
:10360E00B4010653EEFB43DF04EDB4020643EE04B1
:10361E0053DFFBEDB4030B43EE0443DF0480037F63
:0A362E00FF2290FE62EFF07F002201
:1036E10090FA10E054F0F0EDD39403500BE0FEEDAE
:1036F10025E025E0FDEE4DF0EBD39403500690FA62
:1037010010E04BF0EF90FA10B40106E04480F08035
:0837110004E0547FF07F002268
:1037190090FA00E054F0F0EDD39403500BE0FEED85
:1037290025E025E0FDEE4DF0EBD39403500690FA29
:1037390000E04BF0EF90FA00B40106E04480F0801D
:0837490004E0547FF07F002230
:1037510090FA20E054F0F0EDD39403500BE0FEED2D
:1037610025E025E0FDEE4DF0EBD39403500690FAF1
:1037710020E04BF0EF90FA20B40106E04480F080A5
:0837810004E0547FF07F0022F8
:1037890090FA30E054F0F0EDD39403500BE0FEEDE5
:1037990025E025E0FDEE4DF0EBD39403500690FAB9
:1037A90030E04BF0EF90FA30B40106E04480F0804D
:0837B90004E0547FF07F0022C0
:1037C10090FA38E054F0F0EDD39403500BE0FEEDA5
:1037D10025E025E0FDEE4DF0EBD39403500690FA81
:1037E10038E04BF0EF90FA38B40106E04480F08005
:0837F10004E0547FF07F002288
:1037F90090FA40E054F0F0EDD39403500BE0FEED65
:1038090025E025E0FDEE4DF0EBD39403500690FA48
:1038190040E04BF0EF90FA40B40106E04480F080BC
:0838290004E0547FF07F00224F
:1038310090FA48E054F0F0EDD39403500BE0FEED24
:1038410025E025E0FDEE4DF0EBD39403500690FA10
:1038510048E04BF0EF90FA48B40106E04480F08074
:0838610004E0547FF07F002217
:1038690090FA50E054F0F0EDD39403500BE0FEEDE4
:1038790025E025E0FDEE4DF0EBD39403500690FAD8
:1038890050E04BF0EF90FA50B40106E04480F0802C
:0838990004E0547FF07F0022DF
:1038A10090FA58E054F0F0EDD39403500BE0FEEDA4
:1038B10025E025E0FDEE4DF0EBD39403500690FAA0
:1038C10058E04BF0EF90FA58B40106E04480F080E4
:0838D10004E0547FF07F0022A7
:1038D90090FA60E054F0F0EDD39403500BE0FEED64
:1038E90025E025E0FDEE4DF0EBD39403500690FA68
:1038F90060E04BF0EF90FA60B40106E04480F0809C
:0839090004E0547FF07F00226E
:1039110090FA68E054F0F0EDD39403500BE0FEED23
:1039210025E025E0FDEE4DF0EBD39403500690FA2F
:1039310068E04BF0EF90FA68B40106E04480F08053
:0839410004E0547FF07F002236
:1039490090FA70E054F0F0EDD39403500BE0FEEDE3
:1039590025E025E0FDEE4DF0EBD39403500690FAF7
:1039690070E04BF0EF90FA70B40106E04480F0800B
:0839790004E0547FF07F0022FE
:103AD70090FE50E054CFF0EDD39403500AE0FEED92
:103AE700C454F0FDEE4DF0EF90FE50B40106E044F3
:0B3AF70080F08004E0547FF07F00228C
:102E6A009000011211B1B4010543CE80800353CE04
:102E7A007F121198C4333354C0FFE5CE54BF4FF5C7
:102E8A00CE9000021211B1C43354E0FFE5CE54DFF4
:102E9A004FF5CE9000031211B1C454F0FFE5CE54A1
:102EAA00EF4FF5CE9000041211B133333354F8FFCB
:102EBA00E5CE54F74FF5CE9000051211B125E02565
:102ECA00E0FFE5CE54FB4FF5CE9000061211B1FF9C
:0F2EDA00E5CE54FC4FF5CEE49002D4F0C20122B5
:103DE400EF700753CEEF53CE7F2243CE1043CE80E5
:013DF40022AC
:083EF5008FCFD2012001FD2254
:0B3EBD0075CFFFD2012001FDAFCF2226
:03004B000232D6A8
:1032D600C0E0C083C082C0D075D000C007E5CE3044
:1032E600E404C2018025900417E0C394804002E400
:1032F600F0900417E0FF04F074D52FF582E4340251
:10330600F583E5CFF09002D47405F075CDC0D007F3
:09331600D0D0D082D083D0E03287
:10151E00AD07ED6401707A90FECCE054FEF0E0541D
:10152E00FBF090FEC8E054FCF0121198FF90FEC83C
:10153E00E0548F4FF09000061211B1FF90FECC30A8
:10154E00E00DE04401F090FEB1E04401F0800BE0CC
:10155E0054FEF090FEB1E054FEF0EF90FECC30E180
:10156E000DE04404F090FEB1E04402F0800BE05434
:10157E00FBF090FEB1E054FDF09000031212BAE5BC
:10158E00F090FED5F09000031212BA90FED602181B
:10159E00D8ED6402707A90FECCE054EFF0E054BFC8
:1015AE00F090FEC9E054FCF0121198FF90FEC9E0D5
:1015BE00548F4FF09000061211B1FF90FECC30E226
:1015CE000DE04410F090FEB1E04404F0800BE054C6
:1015DE00EFF090FEB1E054FBF0EF90FECC30E30D57
:1015EE00E04440F090FEB1E04408F0800BE054BFC0
:1015FE00F090FEB1E054F7F09000031212BAE5F04D
:10160E0090FED7F09000031212BA90FED80218D8AE
:10161E00ED6403707A90FECDE054FEF0E054FBF0E2
:10162E0090FECAE054FCF0121198FF90FECAE054EE
:10163E008F4FF09000061211B1FF90FECD30E40DE9
:10164E00E04401F090FEB1E04410F0800BE054FE57
:10165E00F090FEB1E054EFF0EF90FECD30E50DE0EE
:10166E004404F090FEB1E04420F0800BE054FBF017
:10167E0090FEB1E054DFF09000031212BAE5F09044
:10168E00FED9F09000031212BA90FEDA0218D8EDCD
:10169E006404707A90FECDE054EFF0E054BFF09009
:1016AE00FECBE054FCF0121198FF90FECBE0548F6D
:1016BE004FF09000061211B1FF90FECD30E60DE016
:1016CE004410F090FEB1E04440F0800BE054EFF097
:1016DE0090FEB1E054BFF0EF90FECD30E70DE04448
:1016EE0040F090FEB1E04480F0800BE054BFF090EB
:1016FE00FEB1E0547FF09000031212BAE5F090FEB6
:10170E00DBF09000031212BA90FEDC0218D8ED64E2
:10171E0080704F9000051211B190FEDEF090000126
:10172E001212BAE5F090FED2F09000011212BA90A9
:10173E00FED3F09000081211B190FEDDB40106E068
:10174E004480F08004E0547FF09000071211B190B5
:10175E00FEC0B40106E04401F08004E054FEF07FC8
:10176E000022ED6405705690FEECE054FEF090FE03
:10177E00E8E054FCF0121198FF90FEE8E0548F4F11
:10178E00F09000061211B190FEEC30E00DE0440135
:10179E00F090FEB5E04401F0800BE054FEF090FEB8
:1017AE00B5E054FEF09000031212BAE5F090FEF58B
:1017BE00F09000031212BA90FEF60218D8ED6406ED
:1017CE00705690FEECE054EFF090FEE9E054FCF021
:1017DE00121198FF90FEE9E0548F4FF09000061220
:1017EE0011B190FEEC30E20DE04410F090FEB5E049
:1017FE004404F0800BE054EFF090FEB5E054FBF0A3
:10180E009000031212BAE5F090FEF7F0900003126A
:10181E0012BA90FEF80218D8ED6407705590FEEDDE
:10182E00E054FEF090FEEAE054FCF0121198FF90A6
:10183E00FEEAE0548F4FF09000061211B190FEEDCB
:10184E0030E40DE04401F090FEB5E04410F0800B62
:10185E00E054FEF090FEB5E054EFF090000312124B
:10186E00BAE5F090FEF9F09000031212BA90FEFA6B
:10187E008058ED6408705790FEEDE054EFF090FE46
:10188E00EBE054FCF0121198FF90FEEBE0548F4FFA
:10189E00F09000061211B190FEED30E60DE044100E
:1018AE00F090FEB5E04440F0800BE054EFF090FE77
:1018BE00B5E054BFF09000031212BAE5F090FEFBB3
:1018CE00F09000031212BA90FEFCF07F0022ED643D
:1018DE0081704C9000051211B190FEFEF090000147
:1018EE001212BAFDACF0EC90FEF2F0AF05A3EFF0E1
:1018FE009000081211B190FEFDB40106E04480F094
:10190E008004E0547FF09000071211B190FEE0B415
:10191E000106E04401F08004E054FEF07F00227FD7
:02192E00FF2296
:1025BF00EF2480700302267A1470030226BF248052
:1025CF00B40800400302270B9025E575F003A4C55E
:1025DF008325F0C583730225FD02260A02261A02FF
:1025EF00262A02263A02264A02265A02266A121280
:1025FF008FFDACF0EC90FED5022705900002121271
:10260F00BAFDACF0EC90FED7022705900004121231
:10261F00BAFDACF0EC90FED902270590000612121D
:10262F00BAFDACF0EC90FEDB022705900008121209
:10263F00BAFDACF0EC90FEF502270590000A1212DD
:10264F00BAFDACF0EC90FEF702270590000C1212C9
:10265F00BAFDACF0EC90FEF902270590000E1212B5
:10266F00BAFDACF0EC90FEFB02270512128FFDAC09
:10267F00F0EC90FED5F0AF05A3EFF0900002121230
:10268F00BAFDACF0EC90FED7F0AF05A3EFF09000E1
:10269F00041212BAFDACF0EC90FED9F0AF05A3EF27
:1026AF00F09000061212BAFDACF0EC90FEDB804603
:1026BF009000081212BAFDACF0EC90FEF5F0AF05E9
:1026CF00A3EFF090000A1212BAFDACF0EC90FEF7F7
:1026DF00F0AF05A3EFF090000C1212BAFDACF0ECC6
:1026EF0090FEF9F0AF05A3EFF090000E1212BAFDB5
:0D26FF00ACF0EC90FEFBF0AF05A3EFF02275
:101F5000AD07ED7079C28C121198FED39403400343
:101F60007FFF22E58954FC4EF5899000011211B1E2
:101F7000FED3940240037FFF22EE7006538E7F5300
:101F800089FB9000011211B1B40106438E80538980
:101F9000FB9000011211B1B40203438904900002C6
:101FA0001211B1FFE58F54FE4FF58F90000312120E
:101FB000BAE5F0F58C9000031212BAF58A9000068B
:101FC0001211B17004C28C8002D28C7F0022ED64A9
:101FD000016003022056C28E121198FED394034072
:101FE000037FFF22EEC454F0FFE58954CF4FF589FB
:101FF0009000011211B1FED3940240037FFF22EE44
:102000007006538EBF5389BF9000011211B1B40105
:1020100006438E405389BF9000011211B1B40203F0
:102020004389409000021211B125E0FFE58F54FD75
:102030004FF58F9000031212BAE5F0F58D90000372
:102040001212BAF58B9000061211B17004C28E8084
:1020500002D28E7F0022ED64027065538EEF9000F5
:10206000011211B1FF7006538EFB538EF7EFB401CE
:1020700006438E04538EF7EFB40203438E0890009C
:10208000021211B125E025E0FFE58F54FB4FF58FDB
:102090009000031212BAE5F0F5D69000031212BABE
:1020A000F5D79000051211B190FEA2F09000061233
:1020B00011B1C454F0FFE58E54EF4FF58E7F00222E
:1020C000ED6403707253D1F79000011211B1FED389
:1020D000940240037FFF22EE700653D1FD53D1FBE3
:1020E0009000011211B1B4010643D10253D1FB900B
:1020F00000011211B1B4020343D104900002121185
:10210000B1FFE5D154FE4FF5D19000031212BAE5AC
:10211000F0F5D49000031212BAF5D5900005121113
:10212000B190FEA3F09000061211B133333354F88E
:10213000FFE5D154F78077ED6404707853D17F9038
:1021400000011211B1FED3940240037FFF22EE7012
:102150000653D1DF53D1BF9000011211B1B4010673
:1021600043D12053D1BF9000011211B1B4020343F7
:10217000D1409000021211B1C454F0FFE5D154EFE8
:102180004FF5D19000031212BAFDACF0ECF5D2AFCE
:10219000058FD39000051211B190FEA4F0900006B7
:1021A0001211B1C43333335480FFE5D1547F4FF55E
:0721B000D17F00227FFF2216
:03001B0002008E52
:03008E00B2EE329D
:0300630002009602
:03009600B2ED3296
:03009B0002009EC2
:03009E00B2EC328F
:0300A300023F0316
:033F0300B2EB32EC
:1009BE0090035FEBF0A3EAF0A3E9F090035EEFF093
:1009CE0064016003020B9C900000F0A3F0A3F0A35F
:1009DE00F0A3F0900362F0A3F0900362E0FEA3E0B8
:1009EE00FFC39480EE9400501C74542FF582740152
:1009FE003EF583E4F0900363E004F070DC90036254
:100A0E00E004F080D4E4900362F0A3F0900362E07F
:100A1E00FEA3E0FFC39480EE9400501C74142FF5D7
:100A2E008274003EF583E4F0900363E004F070DC22
:100A3E00900362E004F080D490035FE0FBA3E0FA41
:100A4E00A3E0F9121198FFE598543F4FF598EF6423
:100A5E00C06008EF64406003020B4790000212145E
:100A6E00417F807E8D7D5B7C0012137D900364122E
:100A7E001471E4FFFE7D01FC900364E0F8A3E0F93D
:100A8E00A3E0FAA3E0FBC312141D40037FFF2290E4
:100A9E000364E0F8A3E0F9A3E0FAA3E0FBC3E49B50
:100AAE00FFE49AFE740199FDE498FC90036412141D
:100ABE007190035FE0FBA3E0FAA3E0F9900001124E
:100ACE0011B1FB64017038C28E538EFE5389BF5331
:100ADE0089CF438E40900364E0FCA3E0FDA3E0FECB
:100AEE00A3E0FF780812142E8F8D900364A3A3A3A6
:100AFE00E0F58BC2AB5389BF538FFDD28E8073EB63
:100B0E0064027032538EEF438E01538EF7438E0480
:100B1E00900364E0FCA3E0FDA3E0FEA3E0FF7808F1
:100B2E0012142E8FD6900364A3A3A3E0F5D753AF70
:100B3E00FB438E10803C7FFF2290035FE0FBA3E01F
:100B4E00FAA3E0F9121198FF70139000081211B178
:100B5E00B40105438E20801A538EDF8015EFB480CA
:100B6E00119000081211B1B4010543878080035320
:100B7E00877F90035FE0FBA3E0FAA3E0F990000704
:100B8E001211B17004C29C8002D29C7F002290038D
:100B9E005EE064026003020CE6900005F0A3F0A391
:100BAE00F0A3F0A3F0900362F0A3F0900362E0FED6
:100BBE00A3E0FFC39480EE9400501C74F42FF582D2
:100BCE0074013EF583E4F0900363E004F070DC9072
:100BDE000362E004F080D4E4900362F0A3F090038B
:100BEE0062E0FEA3E0FFC39480EE9400501C749468
:100BFE002FF58274003EF583E4F0900363E004F079
:100C0E0070DC900362E004F080D490035FE0FBA3FD
:100C1E00E0FAA3E0F9121198FF64C06008EF644097
:100C2E006003020CC4EFB4C005439A808003539A4C
:100C3E007F9000021214417F807E8D7D5B7C0012BE
:100C4E00137D900364121471E4FFFE7D01FC90038A
:100C5E0064E0F8A3E0F9A3E0FAA3E0FBC312141DCD
:100C6E0040037FFF22900364E0F8A3E0F9A3E0FACB
:100C7E00A3E0FBC3E49BFFE49AFE740199FDE498A4
:100C8E00FC900364121471538EEF538EF7438E044F
:100C9E00900364E0FCA3E0FDA3E0FEA3E0FF780870
:100CAE0012142E8FD6900364A3A3A3E0F5D753AFEF
:100CBE00FB438E1080037FFF2290035FE0FBA3E0D7
:100CCE00FAA3E0F99000071211B1C454F0FFE59AAF
:100CDE0054EF4FF59A7F002290035EE064036003A9
:100CEE00020E7A90000AF0A3F0A3F0A3F0A3F09006
:100CFE000362F0A3F0900362E0FEA3E0FFC3944012
:100D0E00EE9400501C74742FF58274023EF583E449
:100D1E00F0900363E004F070DC900362E004F08076
:100D2E00D4E4900362F0A3F0900362E0FEA3E0FF30
:100D3E00C39440EE9400501C74142FF58274013E3F
:100D4E00F583E4F0900363E004F070DC900362E05E
:100D5E0004F080D490035FE0FBA3E0FAA3E0F91265
:100D6E001198FF64C06008EF64406003020E58EFF4
:100D7E00B4C00543AC80800353AC7F9000021214C4
:100D8E00417F807E8D7D5B7C0012137D900364120B
:100D9E001471E4FFFE7D01FC900364E0F8A3E0F91A
:100DAE00A3E0FAA3E0FBC312141D40037FFF2290C1
:100DBE000364E0F8A3E0F9A3E0FAA3E0FBC3E49B2D
:100DCE00FFE49AFE740199FDE498FC9003641214FA
:100DDE007190035FE0FBA3E0FAA3E0F9900001122B
:100DEE0011B1FB6403702943AC40900364E0FCA393
:100DFE00E0FDA3E0FEA3E0FF780812142E8FD4903E
:100E0E000364A3A3A3E0F5D553D1F043D10A803DEB
:100E1E00EB64027032538EEF53ACBF538EF7438E9A
:100E2E0004900364E0FCA3E0FDA3E0FEA3E0FF78E2
:100E3E000812142E8FD6900364A3A3A3E0F5D75304
:100E4E00AFFB438E1080067FFF227FFF2290035F51
:100E5E00E0FBA3E0FAA3E0F99000071211B1C4542D
:100E6E00F0FFE5AC54EF4FF5AC7F002290035EE04F
:100E7E006404600302100E90000FF0A3F0A3F0A321
:100E8E00F0A3F0900362F0A3F0900362E0FEA3E003
:100E9E00FFC39420EE9400501C74B42FF58274029C
:100EAE003EF583E4F0900363E004F070DC9003629F
:100EBE00E004F080D4E4900362F0A3F0900362E0CB
:100ECE00FEA3E0FFC39420EE9400501C74D42FF5C3
:100EDE008274013EF583E4F0900363E004F070DC6D
:100EEE00900362E004F080D490035FE0FBA3E0FA8D
:100EFE00A3E0F9121198FF64C06008EF644060032C
:100F0E00020FECEFB4C005438480800353847F90BE
:100F1E0000021214417F807E8D7D5B7C0012137D5A
:100F2E00900364121471E4FFFE7D01FC900364E0F3
:100F3E00F8A3E0F9A3E0FAA3E0FBC312141D4003EB
:100F4E007FFF22900364E0F8A3E0F9A3E0FAA3E0A8
:100F5E00FBC3E49BFFE49AFE740199FDE498FC90B8
:100F6E00036412147190035FE0FBA3E0FAA3E0F9AF
:100F7E009000011211B1FB64047029438440900368
:100F8E0064E0FCA3E0FDA3E0FEA3E0FF78081214EA
:100F9E002E8FD2900364A3A3A3E0F5D353D10F43B6
:100FAE00D1A0803DEB64027032538EEF5384BF5359
:100FBE008EF7438E04900364E0FCA3E0FDA3E0FEF5
:100FCE00A3E0FF780812142E8FD6900364A3A3A378
:100FDE00E0F5D753AFFB438E1080067FFF227FFFD5
:100FEE002290035FE0FBA3E0FAA3E0F99000071262
:100FFE0011B1C454F0FFE58454EF4FF5847F002205
:02100E007FFF62
:0110100022BD
:0F3E41008F999000027401F0900002E070FA2255
:103D8600121198FF600C123E41740129F9E43AFAC7
:033D960080EE229A
:0F3E50008F9B9000077401F0900007E070FA223A
:103D9900121198FF600C123E50740129F9E43AFAA5
:033DA90080EE2287
:0F3E5F008FAD90000C7401F090000CE070FA220F
:103DAC00121198FF600C123E5F740129F9E43AFA83
:033DBC0080EE2274
:0F3E6E008F859000117401F0900011E070FA221E
:103DBF00121198FF600C123E6E740129F9E43AFA61
:033DCF0080EE2261
:05001E00AE07023E41A7
:030023000231F5B2
:1031F500C0E0C083C082C0D075D000C0073098271A
:10320500C298900003E0C394804002E4F09000036C
:10321500E0FF04F074142FF582E43400F583E5999A
:10322500F09000047405F0309907C299900002E40B
:0C323500F0D007D0D0D082D083D0E0329F
:030043000230FF89
:1030FF00C0E0C083C082C0D075D000C007E59A3051
:10310F00E028539AFE900008E0C394804002E4F058
:10311F00900008E0FF04F074942FF582E43400F57A
:10312F0083E59BF09000097405F0E59A30E10853B0
:10313F009AFD900007E4F0D007D0D0D082D083D092
:02314F00E0326C
:03008B00023151EE
:10315100C0E0C083C082C0D075D000C007E5AC30EC
:10316100E02853ACFE90000DE0C394404002E4F02F
:1031710090000DE0FF04F074142FF582E43401F5A2
:1031810083E5ADF090000E7405F0E5AC30E1085335
:10319100ACFD90000CE4F0D007D0D0D082D083D029
:0231A100E0321A
:030093000231A394
:1031A300C0E0C083C082C0D075D000C007E58430C2
:1031B300E0285384FE900012E0C394204002E4F020
:1031C300900012E0FF04F074D42FF582E43401F58B
:1031D30083E585F09000137405F0E58430E108532E
:1031E30084FD900011E4F0D007D0D0D082D083D0FA
:0231F300E032C8
:101C6D00EFD3940240037FFF22740F2F2FF8E6204D
:101C7D00E5F4C2AFE64430F6D2AFAE0CEEC39F50E2
:101C8D00210E74142EF8E6F908E618BE020274FF50
:101C9D00FDED69600909E71919F7090980F31616B1
:101CAD0080DAEED39F400405810581EED39F40225B
:101CBD0074142EF808E6F9EEB50C02A98118060683
:101CCD00E6FDED6960091919E70909F71980F31E99
:101CDD0080D9EF2414F8E604F8EF2F04903EFD931D
:091CED00F608EF2F93F67F0022A8
:101CF600EFD3940240037FFF22EF23240FF8E63050
:101D0600E5F4C2AFE6548CF6D2AFE50CB5070A741B
:101D1600142FF8E6F581021E59502E74152FF8E699
:101D2600BF020274FFFD18E6F974142FF8FBE6FCF7
:101D3600E96C6008A805E7F61D1980F4A803A60556
:101D46001FE50CB507E37F002274152FF8E6FD1892
:101D560086010F74142FF8A601088604E50CB50752
:101D660002AC81ED6C60080D09A805E6F780F4E584
:091D76000CB507DE89817F002213
:101D7F008FF0E4FFFEE50C23240EF8C2A930F70D17
:101D8F007F08E6600B2DF660325030800730F10689
:101D9F00EDF660277E020830F010C2AFE610E7259F
:101DAF000E30E20CD2AF7F048014C2AFE610E715FD
:101DBF0054EC4EF6D2AFD2A9021E597F0808EF4459
:0F1DCF0083F4C2AF56C6D2AFD2A954804FFF22C1
:03000B00021DE3F0
:101DDE00C2AF80FE32121DE285D00B75D008AAE08C
:101DEE00C28CE58A24F7F58AE58C34D8F58CD28C32
:101DFE00EC2415F8E6BC020274FFC39581B41400FE
:101E0E0040CE7903780E16E608700BC2AFE630E1CD
:101E1E00034418F6D2AF08D9EDEA8BD03002012276
:101E2E00D50DFCC0E0C0D0C0F0C083C082C000C0E1
:101E3E0001C002C003C004C005C006C007E50C23E4
:101E4E00240FF87440C2AF46F6D2AFD202E50CFFB3
:101E5E0023240FF80F0808BF03047F00780FE63025
:101E6E00E4F200E50CC39F5020050C7414250CF809
:101E7E00E6FDA68108E6AE0CBE020274FFCDF8E8C0
:101E8E006D60E008E6C0E080F6E50CD39F4027E5E4
:101E9E000C2415F8E6AE0CBE020274FFFD18E6CD5A
:101EAE00F8E5816D6006D0E0F61880F5E50C241497
:101EBE00C8F6150C80D3750D05E50C23240FF87F9D
:101ECE0004C2AFE610E61E30E00310E20C7F0030D5
:051EDE00E10730E30400
:101EE3007F0854F4547CC6D2AF54804207C2022206
:101EF300F6D2AFD007D006D005D004D003D002D09D
:101F030001D000D082D083D0F0D0D0D0E0C2022262
:101F13007814A68174026006FF0876FFDFFB7F0357
:101F2300E4780EF608F608DFFA780F7630903EFD77
:101F3300740193C0E0E493C0E0750D054389017516
:0D1F43008AF0758CD8D28CD2AFD2A92202C0
:10101100EC4D6011E8497017ED33EC3304600DE4D9
:10102100FCFFFEFD22E933E8330470F8021183125C
:10103100114E58046009E4CC24815006285009025D
:10104100118D28400302118AC0E0EB4A7044B98037
:1010510006D0E0FB021179EF4E701CBD8008EBFF5A
:10106100EAFEE9FD80EBE98DF0A4FEE5F00210FA5D
:10107100E9CDF9EAFEEBFFEF89F0A4FCE5F0CE89BA
:10108100F0A42EFFE435F0CD89F0A42DFEE435F077
:101091008067EF4E7005BD80D780C3EF8BF0A4ACA5
:1010A100F0EE8BF0A42CFCE435F0F8EF8AF0A42CE0
:1010B100E5F038FCE433CB8DF0A42CFCE5F03BF8F3
:1010C100EE8AF0A42CFCE5F038F8E433CF89F0A4E3
:1010D1002CFCE5F038CF3400CE89F0A42FFFE5F0E9
:1010E1003EFEE433C98DF0A42EFEE5F039CD8AF041
:1010F100A42FFFE5F03EFEE43DFD33D0E0FB5007B9
:101101000BBB000F02118DEC2CFCEF33FFEE33FE15
:06111100ED33FD02116543
:10111700EDD2E7CD33EC3392D524814006E4FFFED0
:10112700FDFC22FCE4CFCECDCC24E0501174FF802F
:10113700EDC3CC13CCCD13CDCE13CECF13CF0470CC
:07114700F030D5DE02140FA9
:10114E00E9D2E7C933E833F892D5EDD2E7CD33ECE7
:07115E0033FC5002B2D52260
:10116500EC30E7100FBF000C0EBE00080DBD0004EB
:101175000BEB6014A2D5EB13FCED92E7FD2274FF97
:10118500FCFDFEFF22E480F8A2D574FF13FC7D80F0
:03119500E480EF04
:03000000022D5F6F
:0C2D5F00787FE4F6D8FD758120022DA6D7
:10119800BB010689828A83E0225002E722BBFE0255
:0911A800E32289828A83E4932288
:1011B100BB010CE58229F582E5833AF583E02250F3
:1011C10006E92582F8E622BBFE06E92582F8E2223D
:0D11D100E58229F582E5833AF583E4932257
:1011DE00BB010689828A83F0225002F722BBFE01F0
:0211EE00F322EA
:1011F000F8BB010DE58229F582E5833AF583E8F035
:10120000225006E92582C8F622BBFE05E92582C8E0
:02121000F222C8
:10121200EF8DF0A4A8F0CF8CF0A428CE8DF0A42EF0
:02122200FE22AA
:10122400BC000BBE0029EF8DF084FFADF022E4CCAE
:10123400F875F008EF2FFFEE33FEEC33FCEE9DEC77
:10124400984005FCEE9DFE0FD5F0E9E4CEFD22EDBD
:10125400F8F5F0EE8420D21CFEADF075F008EF2F07
:10126400FFED33FD4007985006D5F0F222C398FDF8
:051274000FD5F0EA2295
:10127900A3F8E0C5F025F0F0E58215827002158328
:06128900E0C838F0E82285
:10128F00BB010A89828A83E0F5F0A3E0225006872A
:10129F00F009E71922BBFE07E3F5F009E3192289EC
:0B12AF00828A83E493F5F0740193221F
:1012BA00BB0110E58229F582E5833AF583E0F5F072
:1012CA00A3E0225009E92582F886F008E622BBFE4F
:1012DA000AE92582F8E2F5F008E222E5832AF58395
:0812EA00E993F5F0A3E993225A
:1012F200E88FF0A4CC8BF0A42CFCE98EF0A42CFC9B
:101302008AF0EDA42CFCEA8EF0A4CDA8F08BF0A418
:101312002DCC3825F0FDE98FF0A42CCD35F0FCEB77
:101322008EF0A4FEA9F0EB8FF0A4CFC5F02ECD393C
:0F133200FEE43CFCEAA42DCE35F0FDE43CFC22A9
:1013410075F008758200EF2FFFEE33FECD33CDCC63
:1013510033CCC58233C5829BED9AEC99E5829840E6
:101361000CF582EE9BFEED9AFDEC99FC0FD5F0D6C3
:10137100E4CEFBE4CDFAE4CCF9A88222B800C1B9ED
:101381000059BA002DEC8BF084CFCECDFCE5F0CB2B
:10139100F97818EF2FFFEE33FEED33FDEC33FCEB64
:1013A10033FB10D703994004EB99FB0FD8E5E4F91F
:1013B100FA227818EF2FFFEE33FEED33FDEC33FC0C
:1013C100C933C910D7059BE99A4007EC9BFCE99A00
:1013D100F90FD8E0E4C9FAE4CCFB2275F010EF2F45
:1013E100FFEE33FEED33FDCC33CCC833C810D70745
:1013F1009BEC9AE899400AED9BFDEC9AFCE899F880
:0E1401000FD5F0DAE4CDFBE4CCFAE4C8F92212
:0E140F00C3E49FFFE49EFEE49DFDE49CFC22EE
:10141D00EB9FF5F0EA9E42F0E99D42F0E89C45F025
:01142D00229C
:10142E00E8600FECC313FCED13FDEE13FEEF13FF9C
:03143E00D8F122C0
:10144100BB010DE58229F582E5833AF5830214F5A6
:101451005007E92582F80214E8BBFE07E92582F866
:10146100021501E58229F582E5833AF58302150E1D
:0C147100ECF0A3EDF0A3EEF0A3EFF022EE
:10147D00A8828583F0D083D0821214941214941212
:10148D001494121494E473E493A3C583C5F0C58337
:10149D00C8C582C8F0A3C583C5F0C583C8C582C8B9
:0114AD00221C
:1014AE00D083D082E4937012740193700DA3A39332
:1014BE00F8740193F5828883E4737402936C70124E
:1014CE007403936D700C7404936E70067405936FB1
:0A14DE0060DDA3A3A3A3A3A380CAAB
:102D6B00021F13E493A3F8E493A34003F68001F24C
:102D7B0008DFF48029E493A3F85407240CC8C33369
:102D8B00C4540F4420C8834004F456800146F6DF38
:102D9B00E4800B0102040810204080900003E47EC5
:102DAB00019360BCA3FF543F30E509541FFEE4932D
:102DBB00A360010ECF54C025E060A840B8E493A3F4
:102DCB00FAE493A3F8E493A3C8C582C8CAC583CA1F
:102DDB00F0A3C8C582C8CAC583CADFE9DEE780BED7
:01000A0000F5
:0D14E800E6FB08E6F908E6FA08E6CBF82274
:0C14F500E0F8A3E0F9A3E0FAA3E0FB227A
:0D150100E2FB08E2F908E2FA08E2CBF8226A
:10150E00E493F8740193F9740293FA740393FB2233
:00000001FF
